:0600000000F097EF0EF086
:100600000000803F72313FFE753E58633D951D3CB2
:10061000C5AE3A79213994803793A7355615340001
:10062000000000803FF0FFBEE2A93E8376BEAE2B05
:100630003E3CC3BDD2133D78D3BB4465636F646950
:1006400066696361646F7220436F6469676F204DF0
:100650006F7273653A200D0A4672616E6369736347
:100660006F205061676C69612079204A75616E2046
:100670004372757A204D6972676F6E652E0D0A2080
:100680000D0A0020202020202020202020202020B3
:100690002020200020204465636F646966696361DF
:1006A000646F72002020436F6469676F204D6F7222
:1006B000736500202020524230202F20494E5430B4
:1006C000002020202050726573696F6E65002D0038
:1006D0002E000000FFFF9ED0000E046E410E22D1BE
:1006E000000E046E420E1ED1000E046E430E1AD18F
:1006F000000E046E440E16D1000E046E450E12D18B
:10070000000E046E460E0ED1000E046E470E0AD186
:10071000000E046E480E06D1000E046E490E02D182
:10072000000E046E4A0EFED0000E046E4B0EFAD080
:10073000000E046E4C0EF6D0000E046E4D0EF2D07C
:10074000000E046E4E0EEED0000E046E4F0EEAD078
:10075000000E046E500EE6D0000E046E510EE2D074
:10076000000E046E520EDED0000E046E530EDAD070
:10077000000E046E540ED6D0000E046E550ED2D06C
:10078000000E046E560ECED0000E046E570ECAD068
:10079000000E046E580EC6D0000E046E590EC2D064
:1007A000000E046E5A0EBED0000E046E310EBAD08A
:1007B000000E046E320EB6D0000E046E330EB2D0B0
:1007C000000E046E340EAED0000E046E350EAAD0AC
:1007D000000E046E360EA6D0000E046E370EA2D0A8
:1007E000000E046E380E9ED0000E046E390E9AD0A4
:1007F000000E046E300E96D0000E046E200E92D0C5
:10080000010E83EC0DF0000E756E89D0000E046EA3
:10081000230E88D003C005F004C006F00650000A7D
:10082000D8B404D0010AD8B466D0F0D70550000A75
:10083000D8B4CAD7010AD8B4CBD7020AD8B4CCD717
:10084000070AD8B4DDD7030AD8B4CAD7090AD8B47E
:10085000D3D7010AD8B4C8D71F0AD8B4B1D7080A69
:10086000D8B4AAD7030AD8B46BD7070AD8B4A0D78C
:10087000020AD8B499D7010AD8B4BAD7BF0AD8B4F3
:1008800047D7010AD8B42CD7030AD8B451D7010AE4
:10089000D8B486D7070AD8B433D7010AD8B424D736
:1008A000030AD8B455D70E0AD8B46AD7010AD8B407
:1008B0006FD7020AD8B450D7060AD8B46DD7030A46
:1008C000D8B42ED75E0AD8B44FD7010AD8B410D7FF
:1008D000030AD8B445D7010AD8B416D7070AD8B442
:1008E0004BD7010AD8B420D7030AD8B44DD7010A90
:1008F000D8B42AD78BD70550180AD8B40DD7010A17
:10090000D8B41ED7030AD8B4E7D6010AD8B414D78E
:10091000370AD8B4F1D6010AD8B42AD777D7000E4F
:10092000046E2A0E036E1200FFFFFFFF000E716EB1
:10093000000E706E000E6C6EFA0E6B6E000E726E14
:10094000020E83EC0DF04ED0704A712A000E026E3A
:10095000010E016E0AEC0EF0898881A0F5D7899806
:10096000715004E1040E705CD8A033D07250010DB8
:10097000630EF324D96E000EF420DA6E715004E198
:100980003D0E705CD8A002D0010E01D0000EDF6ECB
:100990007250010D630EF324D96E000EF420DA6E4E
:1009A000DF50D8B407D0CE0E036E060E046E2BECCB
:1009B0000DF006D0D00E036E060E046E2BEC0DF07B
:1009C000722A000E716E000E706E000E6C6EFA0EC2
:1009D0006B6E000E026E010E016E0AEC0EF06B06DD
:1009E000D8A06C066B506C10D8A4B7D7020E83EC5D
:1009F0000DF0830E036E060E046E2BEC0DF0040E4C
:100A0000726401D00CD07250010D630EF324D96EC4
:100A1000000EF420DA6E0A0EDF6E722AF0D7000E96
:100A20006E6E000E6D6E000E726E040E726401D05A
:100A300052D0725078EC0EF009C055F00AC056F052
:100A40000BC057F0000E526E000E536E400E546EE7
:100A500063EC07F052C068F053C069F054C06AF00C
:100A600068C010F069C011F06AC012F07250010D38
:100A7000630EF324D96E000EF420DA6EDF5078ECAA
:100A80000EF009C00DF00AC00EF00BC00FF09BEC89
:100A900008F00DC01FF00EC020F00FC021F06DC097
:100AA00009F06EC00AF064EC0EF009C01CF00AC038
:100AB0001DF00BC01EF08BEC06F01CC028F01DC012
:100AC00029F01EC02AF05FEC0AF028C06DF029C0A2
:100AD0006EF0722AAAD70F0E75640BD0010E83EC4C
:100AE0000DF0000E756E800E026E060E036E23EC86
:100AF0000EF07550C00F83EC0DF0752A6DC003F039
:100B00006EC004F06AEC03F003506F6E6F5058EC47
:100B10000DF0920E026E060E036E23EC0EF06F5077
:100B20009FEC0EF0920E026E060E036E23EC0EF09A
:100B30007550C00F83EC0DF01200FFFFFFFF49500E
:100B40004A104B10D8A406D0000E496E800E4A6E93
:100B50003F0E2FD0720E016E310E026E440E036EE8
:100B600049C004F04AC005F04BC006F073EC0CF02D
:100B7000D8B00AD0000E746E220E736EFF0E496E4E
:100B80007F0E4A6E7F0E15D049C001F04AC002F0B8
:100B90004BC003F0490E046E3A0E056EC40E066E8D
:100BA00073EC0CF0D8B007D0000E746E220E736E8A
:100BB0008FD04B6EAED04BAE02D0010E01D0000EE6
:100BC000516E5150D8B40ED049C001F04AC002F065
:100BD0004BC003F050EC0EF001C049F002C04AF0E7
:100BE00003C04BF049C00DF04AC00EF04BC00FF0EF
:100BF000AA0E106EB80E116E3F0E126E9BEC08F02E
:100C00000DC049F00EC04AF00FC04BF049C041F092
:100C10004AC042F04BC043F081EC09F041C04CF0B7
:100C200042C04DF043C04EF04CC028F04DC029F0FA
:100C30004EC02AF05FEC0AF028C04FF029C050F0F7
:100C400049C028F04AC029F04BC02AF04FC009F033
:100C500050C00AF0ECEC0DF009C02BF00AC02CF0EB
:100C60000BC02DF0AAEC0DF028C049F029C04AF0C5
:100C70002AC04BF049C028F04AC029F04BC02AF0E6
:100C8000010E2B6E060E2C6E000E2E6E090E2D6EB2
:100C900010EC09F028C034F029C035F02AC036F035
:100CA0004FC037F050C038F026EC0BF034C049F09C
:100CB00035C04AF036C04BF05150D8B424D0492842
:100CC0000DE17F0E4A180AE17F0E4B18D8A406D01A
:100CD000000E496E000E4A6E000E6BD7000E096EB4
:100CE000800E0A6E3F0E0B6E49C00CF04AC00DF02C
:100CF0004BC00EF0F1EC09F009C049F00AC04AF00F
:100D00000BC04BF006D049C049F04AC04AF04BC076
:100D10004BF01200FFFFFFFF1EC022F0236A246A7F
:100D20001D34223601E323802250276E21C022F099
:100D3000236A246A2034223601E323802250266E5F
:100D40002750D8B40BD02650275CD8B00ED02750EF
:100D500000082624226E180E226407D01FC01CF043
:100D600020C01DF021C01EF0ACD02650D8B40BD04E
:100D70002750265CD8B00ED0265000082724226EBB
:100D8000180E226407D01CC01CF01DC01DF01EC030
:100D90001EF097D0060E256E1EBE258E21BE258C18
:100DA0001D8EFF0E1C16FF0E1D16000E1E16208E29
:100DB000FF0E1F16FF0E2016000E21162650275C70
:100DC000D8B01BD0D8901F362036213626062750A3
:100DD0002618D8B40DD0250625C022F0070E2216FD
:100DE000D8B406D0EFD7D8901E321D321C32272A35
:100DF00026502718D8B41FD0F6D72750265CD8B075
:100E00001AD0D8901C361D361E36270627502618B5
:100E1000D8B40DD0250625C022F0070E2216D8B46E
:100E200006D0EFD7D890213220321F32262A265002
:100E30002718D8A4F7D725AE0CD0FF0E1C1AFF0E2A
:100E40001D1AFF0E1E1A010E1C26000E1D22000E7A
:100E50001E2225AC0CD0FF0E1F1AFF0E201AFF0E0B
:100E6000211A010E1F26000E2022000E2122000E44
:100E7000256E1C501F261D5020221E50212221AEFF
:100E80000ED0FF0E1F1AFF0E201AFF0E211A010EA0
:100E90001F26000E2022000E2122010E256E1FC0EB
:100EA00001F020C002F021C003F027C004F025C0EB
:100EB00005F082EC0BF001C01CF002C01DF003C075
:100EC0001EF01200FFFFFFFF000E5E6E5250531027
:100ED0005410D8A411D0000E016E000E026E000E48
:100EE000036E55C004F056C005F057C006F073EC11
:100EF0000CF0D8A036D031D0555056105710D8A489
:100F000006D0000E526E800E536E3F0E2FD054AEA0
:100F100040D055C028F056C029F057C02AF05FECE9
:100F20000AF028C05FF029C060F02AC061F02BC031
:100F300062F05FC009F060C00AF061C00BF062C0EF
:100F40000CF0FBEC0CF05550091807E156500A184C
:100F500004E157500B18D8B40BD0000E746E210E5C
:100F6000736E000E526E000E536E000E546E59D00A
:100F70005F50010B5E6E52C001F053C002F054C0CE
:100F800003F050EC0EF001C052F002C053F003C069
:100F900054F052C034F053C035F054C036F013EC66
:100FA00008F034C058F035C059F036C05AF058C077
:100FB0000DF059C00EF05AC00FF055C010F056C0D9
:100FC00011F057C012F09BEC08F00DC05BF00EC0A2
:100FD0005CF00FC05DF05BC049F05CC04AF05DC0E2
:100FE0004BF09EEC05F049C052F04AC053F04BC0A4
:100FF00054F05E50D8B40FD052C001F053C002F08C
:1010000054C003F050EC0EF001C052F002C053F097
:1010100003C054F006D052C052F053C053F054C035
:1010200054F01200FFFFFFFF36AE04D0000E746EC6
:10103000210E08D0345035103610D8A40BD0000E35
:10104000746E220E736E000E346E000E356E000E3E
:10105000366E6FD0000E106E000E116E400E126EC6
:10106000370E046E000E056E34C001F035C002F07C
:1010700036C003F029EC0CF001C00DF002C00EF0F8
:1010800003C00FF09BEC08F00DC01CF00EC01DF06B
:101090000FC01EF0000E1F6E800E206EBF0E216E60
:1010A0008BEC06F01CC034F01DC035F01EC036F0CD
:1010B0003706D8A0380634C028F035C029F036C02D
:1010C0002AF01F0E2B6E060E2C6E000E2E6E080ED2
:1010D0002D6E10EC09F028C034F029C035F02AC07C
:1010E00036F0720E106E310E116E3F0E126E37C05A
:1010F00009F038C00AF0ECEC0DF009C00DF00AC0A0
:101100000EF00BC00FF09BEC08F00DC01CF00EC0F1
:101110001DF00FC01EF034C01FF035C020F036C0E7
:1011200021F08BEC06F01CC034F01DC035F01EC061
:1011300036F01200FFFFFFFF0FC013F0146A156AAC
:101140000E34133601E314801350166E1650D8B4C3
:101150000DD012C013F0146A156A1134133601E36E
:10116000148013501B6E1B50D8A407D0000E0D6EB8
:10117000000E0E6E000E0F6E51D01B507B0F162608
:101180000FC01BF012501B1A800E1B160E8E118EF4
:10119000FF0E1016FF0E1116000E1216000E176E1F
:1011A000000E186E000E196E070E1A6E0DA006D0F6
:1011B000105017261150182212501922D8900F32B1
:1011C0000E320D32D8901036113612361A2EEED756
:1011D000090E1A6E0DA006D01050172611501822B5
:1011E00012501922D8900F320E320D32D890193287
:1011F000183217321A2EEED717C001F018C002F0BD
:1012000019C003F016C004F01BC005F082EC0BF00F
:1012100001C00DF002C00EF003C00FF01200FFFF7E
:10122000FFFF2DC001F02EC002F0000E046E030E71
:10123000036E3BEC0EF02BC02FF02CC030F00150B1
:101240002F26025030222FC0F6FF30C0F7FF0900D2
:10125000FFFFF5CF31F00900FFFFF5CF32F00A00B4
:10126000FFFFF5CF33F041D031C010F032C011F0A4
:1012700033C012F028C00DF029C00EF02AC00FF0C4
:101280009BEC08F00DC01CF00EC01DF00FC01EF04E
:10129000000E046E030E036E2D06D8A02E062DC080
:1012A00001F02EC002F03BEC0EF02BC02FF02CC052
:1012B00030F001502F26025030222FC0F6FF30C0F0
:1012C000F7FF0900FFFFF5CF1FF00900FFFFF5CF83
:1012D00020F00A00FFFFF5CF21F08BEC06F01CC0D8
:1012E00031F01DC032F01EC033F02D502E10D8A4A6
:1012F000BBD731C028F032C029F033C02AF0120029
:10130000FFFFFFFF41C001F042C002F043C003F005
:10131000470E046E000E056E29EC0CF048AE0FD09F
:1013200043AE06D0000E416E800E426EBF0E05D059
:10133000000E416E000E426E000E436E50D04850BB
:1013400004E1150E475CD8A007D041C041F042C06F
:1013500042F043C043F043D041C028F042C029F0DE
:1013600043C02AF05FEC0AF028C037F029C038F0FB
:101370002AC039F02BC03AF0BDEC0CF037C044F075
:1013800038C045F039C046F041C001F042C002F01B
:1013900043C003F044C004F045C005F046C006F069
:1013A00073EC0CF0D8B015D044C01CF045C01DF053
:1013B00046C01EF0000E1F6E800E206EBF0E216E06
:1013C0008BEC06F01CC041F01DC042F01EC043F083
:1013D00006D044C041F045C042F046C043F0120080
:1013E000FFFFFFFF0BC00FF0106A116A0A340F36BF
:1013F00001E310800F50166E1650D8B40DD00EC0F9
:101400000FF0106A116A0D340F3601E310800F508F
:10141000176E1750D8A407D0000E096E000E0A6E82
:10142000000E0B6E4AD0000E136E000E146E000EEE
:10143000156E1750890F165E0BC017F00E50171A55
:10144000800E17160A8EFF0E0916FF0E0A16000EE2
:101450000B160D8EFF0E0C16FF0E0D16000E0E163F
:10146000180E126ED8901336143615360C50095CCF
:101470000D500A580E500B58D8A007D00C50095EDA
:101480000D500A5A0E500B5A1380D89009360A365E
:101490000B36122EE7D713C001F014C002F015C0AE
:1014A00003F016C004F017C005F082EC0BF001C089
:1014B00009F002C00AF003C00BF01200FFFFFFFFAB
:1014C0002AC02CF02D6A2E6A29342C3601E32D8097
:1014D0002C50366E3650D8B435D0170E2C6E28C02E
:1014E0002DF029C02EF02AC02FF02C28306E04D009
:1014F000D8902F322E322D32302EFAD72D50316E19
:10150000298EFF0E2816FF0E2916000E2A162850C7
:10151000326E2950336E2A50346E356A8E0E365E26
:1015200036AE0DD03650800A8F0FD8A00BD0D89091
:101530003532343233323232363EF9D715D0170EC7
:1015400036640FD0000E286E000E296E000E2A6E33
:10155000000E2B6E1CD0D8903236333634363536EA
:1015600036063650D8A4F7D73150D8B408D0351E37
:10157000341E331E326C000E33223422352232C028
:1015800028F033C029F034C02AF035C02BF0120007
:10159000FFFFFFFF300E046E8C928C948C96959218
:1015A00095949596000E956E930E036E320EFFFF86
:1015B000E82EFDD7032EFBD704C08CFF8C8400F0EF
:1015C00000F08C94310E036EBB0EFFFFE82EFDD7AA
:1015D000032EFBD704C08CFF8C8400F000F08C94A9
:1015E0000A0E036EBE0EFFFFE82EFDD7032EFBD7BB
:1015F00000D004C08CFF8C8400F000F08C94310E7D
:10160000036EBB0EFFFFE82EFDD7032EFBD7200E87
:101610008C6E8C8400F000F08C94280E83EC0DF01E
:101620000F0E83EC0DF0010E83EC0DF0060E83EC33
:101630000DF0800E83EC0DF0310E036EBB0EFFFF3C
:10164000E82EFDD7032EFBD71200FFFFFFFF34501B
:1016500035103610D8B41BD036507F0B396E3A6A2D
:10166000D89039363A36395037263A50382235AE86
:1016700003D0396A392A01D0396A39503726000E29
:10168000382238AE0AD0000E746E220E736E000E31
:10169000346E000E356E000E16D038BE16D03804EB
:1016A000D8A013D0000E746E220E736E36AE06D024
:1016B000FF0E346E7F0E356EFF0E05D0FF0E346EBA
:1016C0007F0E356E7F0E366E1BD0383438303A6E52
:1016D0003730396E36503918800B3918366E37C0AE
:1016E00039F0010E391639323932355039187F0B3D
:1016F0003918356E34C034F035C035F036C036F0A8
:101700001200FFFFFFFF0450D8B405D001500210B3
:101710000310D8A40CD0000E016E000E026E000E55
:10172000036E47D0042AD890033202320132000EF1
:101730000114066E000E0214076EFE0E0314086EEE
:10174000065007100810D8B40CD0ECD7042A010EAC
:101750000126000E0222000E0322D890033202322C
:101760000132000E0114066E000E0214076EFF0E09
:101770000314086E065007100810D8B406D0E6D738
:101780000406D89001360236033602BE03D0020E9C
:101790000460F6D704A0029ED890043204500312CD
:1017A0000550D8A4038E01C001F002C002F003C0AE
:1017B00003F01200FFFFFFFF8CEC0EF0C9EC0AF003
:1017C0003A0E026E060E036E23EC0EF0020E83EC50
:1017D0000DF0940E036E060E046E2BEC0DF0C00E91
:1017E00083EC0DF0A40E036E060E046E2BEC0DF0D0
:1017F000000E026E960E016E0AEC0EF0010E83ECE6
:101800000DF0310E936EF19E96908D90070EC16E85
:10181000000E926E8998C10E036E060E046E2BECBC
:101820000DF0C00E83EC0DF0B30E036E060E046EC9
:101830002BEC0DF081B0FED7010E83EC0DF081A0F2
:1018400095EC04F081B881AA01D0F9D7CCEC0DF069
:10185000F6D7FFFF015002100310D8A40FD004C028
:10186000D9FF05C0DAFF000EDE6E000EDD6E000E41
:10187000016E000E026E000E036E33D003507F0B1C
:10188000066E076AD8900636073604C0D9FF05C031
:10189000DAFF06C0DEFF07C0DDFF02AE03D0066A36
:1018A000062A01D0066A065004C0D9FF05C0DAFF37
:1018B000DE12000EDD1204C0D9FF05C0DAFF820E71
:1018C000DE26FF0EDD220380038203840386038865
:1018D000038A039C029E01C001F002C002F003C013
:1018E00003F01200FFFFFFFF03AE16D001C007F0A8
:1018F00002C008F003C009F0071E081E091E072ACF
:10190000000E08220922000E0724016E000E082096
:10191000026E800E0920036E06AE16D004C007F0DA
:1019200005C008F006C009F0071E081E091E072A98
:10193000000E08220922000E0724046E000E082063
:10194000056E800E0920066E000E011A000E021AA6
:10195000800E031A000E041A000E051A800E061AD5
:101960000450015C0550025806500358D8B002D00C
:10197000D89001D0D8801200FFFFFFFF000E406E0C
:101980008E0E3F6E3AAE11D03A1E391E381E376C9D
:10199000000E382239223A22010E406E06D0D8902D
:1019A0003A323932383237323F2A000E37143B6E22
:1019B000000E38143C6E000E39143D6EFF0E3A14C2
:1019C0003E6E3B503C103D103E10D8A4E8D737C0C7
:1019D00001F038C002F039C003F03FC004F040C04D
:1019E00005F082EC0BF001C037F002C038F003C004
:1019F00039F01200FFFFFFFF8E0E116E06D0D89057
:101A00000C320B320A320932112A000E09140D6E03
:101A1000000E0A140E6E000E0B140F6EFF0E0C1447
:101A2000106E0D500E100F101010D8A4E8D709C07A
:101A300001F00AC002F00BC003F011C004F0000E68
:101A4000056E82EC0BF001C009F002C00AF003C081
:101A50000BF01200FFFFFFFF15D003C0F6FF04C01C
:101A6000F7FFF86A050EF76404D00800FFFFF55091
:101A700005D0F6CFE1FFF7CFE2FFE75058EC0DF0CD
:101A8000034A042A03C0F6FF04C0F7FFF86A050EF4
:101A9000F76404D00800FFFFF55005D0F6CFE1FF52
:101AA000F7CFE2FFE7500009D8B41200D6D7FFFF06
:101AB000FFFF026E310E016EBB0EFFFFE82EFDD759
:101AC000012EFBD7000E8C6E8C8202C001F0F00E4E
:101AD00001168C500F0B01108C6E8C8400F000F0FE
:101AE0008C9402C001F0013AF00E0116F00E0116BE
:101AF0008C500F0B01108C6E8C8400F000F08C94D5
:101B00008C921200FFFFFFFF026E310E016EBB0EC2
:101B1000FFFFE82EFDD7012EFBD702C001F0F00E2B
:101B200001168C500F0B01108C6E8C8400F000F0AD
:101B30008C9402C001F0013AF00E0116F00E01166D
:101B40008C500F0B01108C6E8C8400F000F08C9484
:101B50001200FFFFFFFF2B502C102D10D8B406D021
:101B6000000E2B1A000E2C1A800E2D1A28C01CF005
:101B700029C01DF02AC01EF02BC01FF02CC020F081
:101B80002DC021F08BEC06F01CC028F01DC029F000
:101B90001EC02AF01200FFFFFFFF81B80BD00E0E0F
:101BA0007518D8B417D0000E026E280E016E0AEC1C
:101BB0000EF0752A81BA0AD07550D8B40BD0000E39
:101BC000026E280E016E0AEC0EF075067550C00FFD
:101BD00083EC0DF01200FFFFFFFF000E0C6E0AAE4B
:101BE00006D0096C0A1ED8B00A2A010E0C6E09C074
:101BF00001F00AC002F0036A8E0E046E0CC005F0FC
:101C000082EC0BF001C009F002C00AF003C00BF037
:101C10001200FFFFFFFF000E056E000E046E0BD0DA
:101C2000620E036E760EFFFFE82EFDD7032EFBD764
:101C300000D0044A052A0150045C02500558D8B06F
:101C40001200EED7FFFFFFFF040E046E000E056EBC
:101C500003D006509FEC0EF002C0F6FF03C0F7FF62
:101C6000024A032A0800FFFFF5CF06F00650D8B459
:101C70001200EFD7FFFFFFFF01500302F3CF05F083
:101C8000F4CF06F001500402F3500626025003027E
:101C9000F350062605C001F006C002F01200FFFF57
:101CA000FFFF015002100310D8B406D0000E011A35
:101CB000000E021A800E031A01C001F002C002F0E9
:101CC00003C003F01200FFFFFFFF09C001F00AC0CC
:101CD00002F0036A8E0E046E000E056E82EC0BF0AD
:101CE00001C009F002C00AF003C00BF01200FFFFB0
:101CF000FFFF0C6E0C50016E026A036A8E0E046EBA
:101D0000000E056E82EC0BF001C009F002C00AF073
:101D100003C00BF01200FFFFFFFF400EAF6E240E5A
:101D2000AC6E900EAB6E949C948E1200FFFF756AA1
:101D3000746A736A000EF86E0001DBEF0BF0FFFFB0
:0E1D4000016EACA2FED701C0ADFF1200FFFF86
:020000040020DA
:08000000FFFFFFFFFFFFFFFF00
:020000040030CA
:0E000000FF260700FF0081FF0FC00FE00F403A
:00000001FF
